:100000000C94E5000C9402010C9402010C94020182
:100010000C9402010C9402010C9402010C94020154
:100020000C9402010C9402010C9402010C94020144
:100030000C9402010C9402010C9402010C94020134
:100040000C94780C0C9402010C9402010C940201A3
:100050000C9402010C9402010C9402010C94020114
:100060000C9402010C9402010C9402010C94020104
:100070000C9402010C9402010C940201084AD73B33
:100080003BCE016E84BCBFFDC12F3D6C74319ABD67
:1000900056833DDA3D00C77F11BED9E4BB4C3E918B
:1000A0006BAAAABE000000803F05A84CCDB2D44E7A
:1000B000B93836A9020C50B9918688083CA6AAAA7C
:1000C0002ABE000000803F6E616E00696E6600000F
:1000D000407A10F35A00A0724E18090010A5D4E817
:1000E0000000E87648170000E40B54020000CA9AAA
:1000F0003B000000E1F505000080969800000040FC
:10010000420F000000A08601000000102700000040
:1001100000E803000000006400000000000A000086
:100120000000000100000000002C76D888DC674F3A
:100130000823DFC1DFAE59E1B1B796E5E3E453C66A
:100140003AE651997696E8E6C28426EB898C9B6262
:10015000ED407C6FFCEFBC9C9F40F2BAA56FA5F40C
:1001600090055A2AF75C936B6CF9676DC11BFCE034
:10017000E40D47FEF520E6B500D0ED902E03009487
:100180003577050080841E080000204E0A0000001C
:10019000C80C333333330F986E12831141EF8D2126
:1001A00014893BE65516CFFEE6DB18D1844B381B8D
:1001B000F77C1D901DA4BBE424203284725E228152
:1001C00000C9F124ECA1E53D270011241FBECFEFAB
:1001D000D0E1DEBFCDBF11E0A0E0B1E0ECE0F5E39F
:1001E00002C005900D92A63DB107D9F711E0A6ED2A
:1001F000B1E001C01D92A93EB107E1F70E94E70CF2
:100200000C94841A0C940000A1E1B0E0EAE0F1E063
:100210000C9453183C017F876E876A01FC0117829A
:100220001682838181FD03C06FEF7FEF6FC39E0154
:100230002F5F3F4F398B288BF3012381EE85FF859C
:1002400023FD859123FF8191FF87EE87882309F4A1
:100250005AC3853251F4EE85FF8523FD859123FF36
:100260008191FF87EE87853229F490E0B3010E94E7
:100270008C19E2CF982F10E0882499241032B0F422
:100280009B3269F09C3228F4903251F0933271F431
:100290000BC09D3239F0903349F4116028C01260D0
:1002A000146025C0186023C0106121C017FD2AC04A
:1002B000892F80538A3078F416FF06C0FAE09F9E9B
:1002C000902C1124980E13C03AE0839E802C1124A8
:1002D000880E10620CC09E3221F416FD14C3106407
:1002E00006C09C3611F4106802C0983659F4EE85A9
:1002F000FF8523FD959123FF9191FF87EE87992339
:1003000009F0BCCF892F8554833020F4812F806180
:10031000905E07C0892F8556833008F09FC1812FDA
:100320008F7E86FD02C076E0972E6FE3F62EF822D0
:10033000953619F4F0E4FF2A07C0963619F420E840
:10034000F22A02C091109A94F7FE0AC03BE33915D5
:1003500018F45CE3B52E02C0B92CB39427E009C0B1
:1003600047E0491520F4BB2447E0942EF7CF292D10
:10037000BB24C60104969D878C87F601608171813C
:1003800082819381AE014F5F5F4F0B2D0E949E18BB
:100390006C010981202E332400FF04C003FD02C03C
:1003A0001DE209C0F1FE02C01BE205C0F2FC02C062
:1003B00010E001C010E2C1018C709070892BB9F17E
:1003C000112311F483E001C084E0881510F0882423
:1003D0000AC0881AF3FC07C080E290E0B3010E94D3
:1003E0008C198A94C9F7112329F0812F90E0B30169
:1003F0000E948C1923FE03C007EC10E00EC00BEC2A
:1004000010E00BC0E114F10409F0805290E0B30158
:100410000E948C190F5F1F4F05C0EF2CFF24F0E1E5
:10042000EF22FF24F8018491882361F714C1F7FEBD
:1004300012C0BC0C24FE04C08A81813309F4BA9432
:100440001B141CF0BB24B3942DC0F8E0FB1550F531
:1004500038E0B32E27C0F6FC25C0892D90E08C151E
:100460009D054CF02CEFC2162FEFD20624F030E899
:10047000F32A01C09A94992049F0E2E0F0E0EC0FF1
:10048000FD1FE90DF11D80818033A1F3F7FE0AC045
:10049000B92CB394892D90E0C816D90614F099248C
:1004A00001C09C18F7FC03C025E030E009C01C1413
:1004B0001D041CF021E030E003C096012F5F3F4F88
:1004C000112311F02F5F3F4F992029F0892D90E0E3
:1004D0000196280F391F882D90E02817390714F04E
:1004E000882401C0821A4F2C5524C2018970907053
:1004F000892B39F008C080E290E0B3010E948C198A
:100500008A948820C1F7112329F0812F90E0B3014C
:100510000E948C1943FE07C008C080E390E0B3013D
:100520000E948C198A948820C1F7F7FE46C0860184
:10053000D7FE02C000E010E076010894E11CF11C37
:10054000E01AF10A41E050E04C0F5D1FE40EF51E89
:1005500026014B185108892D90E0AA24BB24A81A23
:10056000B90A5FEF0F3F150729F48EE290E0B3015F
:100570000E948C19C016D10634F0401651061CF4A6
:10058000F701808101C080E3015010400894E11C14
:10059000F11C0A151B052CF090E0B3010E948C1988
:1005A000E0CF0C151D0539F49A81963318F4953374
:1005B00011F424FE81E390E04BC08A81813309F07D
:1005C0000F7E90E0B3010E948C199920A1F08EE279
:1005D00090E0B3010E948C1912E0E1E0F0E0EC0F32
:1005E000FD1FE10FF11D1F5F808190E0B3010E94AC
:1005F0008C199A9491F744FC03C085E690E002C000
:1006000085E490E0B3010E948C19D7FC05C0C114A9
:10061000D10441F404FF06C0D094C194D108D3940E
:100620008DE201C08BE290E0B3010E948C1980E35F
:1006300005C08F5F26EF3FEFC20ED31E3AE0C31610
:10064000D104BCF790E0B3010E948C19C601C0969A
:10065000B3010E948C19CC84DD8452C1933631F0F1
:10066000933799F0933509F059C023C0F601808182
:1006700089835E010894A11CB11C22E030E0C20E07
:10068000D31E21E0E22EF12C12C0F601A080B18031
:1006900016FD03C06FEF7FEF02C0692D70E022E00E
:1006A00030E0C20ED31EC5010E9481197C011F7764
:1006B00013C0F601A080B18016FD03C06FEF7FEF7D
:1006C00002C0692D70E022E030E0C20ED31EC501E9
:1006D0000E9476197C01106813FF07C01BC080E2DE
:1006E00090E0B3010E948C198A94882D90E0E8165E
:1006F000F906A8F30FC0F50117FD859117FF819149
:100700005F0190E0B3010E948C1981108A940894D3
:10071000E108F108E114F10471F7F2C0943611F028
:10072000993689F517FF08C0F60120813181428191
:10073000538184E090E00AC0F601808191819C01A0
:10074000442737FD4095542F82E090E0C80ED91E13
:100750009FE6F92EF12257FF09C05095409530953C
:1007600021953F4F4F4F5F4F90E8F92ACA01B901D9
:10077000AE014F5F5F4F2AE030E00E94261AE82E5C
:10078000E889EE1A41C0953721F41F7E2AE030E057
:100790001CC0197F9F3661F0903720F4983509F01E
:1007A000B2C00FC0903739F0983709F0ACC004C020
:1007B00028E030E00AC0106114FD146020E130E050
:1007C00004C014FD166020E132E017FF08C0F601F6
:1007D000608171818281938144E050E008C0F6011C
:1007E00080819181BC0180E090E042E050E0C40E45
:1007F000D51EAE014F5F5F4F0E94261AE82E588922
:10080000E51A8FE7F82EF122F6FE0BC08EEFF822E4
:10081000E91438F4F4FE07C0F2FC05C09FEEF9229B
:1008200002C01E2D01C0192DF4FE0DC0FE01EE0DFB
:10083000F11D8081803319F4E9EEFE2208C01F5FAC
:10084000F2FE05C003C08F2D867809F01F5F0F2DC3
:10085000F3FC14C0F0FE0FC0181510F09E2C0BC056
:100860009E2C980C911A182D06C080E290E0B301DE
:100870000E948C191F5F1815C0F304C0181510F4DE
:10088000811A01C0882404FF0FC080E390E0B30107
:100890000E948C1902FF1DC001FD03C088E790E093
:1008A0000EC088E590E00BC0802F867891F001FFA4
:1008B00002C08BE201C080E2F7FC8DE290E0B30160
:1008C0000E948C1906C080E390E0B3010E948C194D
:1008D0009A94E914C0F3EA94E1E0F0E0EC0FFD1F14
:1008E000EE0DF11D808190E0B3010E948C19EE2085
:1008F00091F706C080E290E0B3010E948C198A94BF
:100900008820C1F799CCF30166817781CB0161968C
:10091000E2E10C946F180F931F93182F80912B0016
:100920008F7780932B0086E00E944C0C812F82955C
:10093000880F880F807C0E944C0C182F1F7000E0DD
:1009400080E00E944C0C90912B00906890932B00BB
:10095000282F30E0202B312BC9011F910F910895D2
:10096000806480937C0087E880937A000895806497
:1009700080937C0080917A00806480937A008091DB
:100980007A0084FFFCCF2091780030917900C90172
:1009900008950F931F938B0190912B009F7E90934E
:1009A0002B0080630E944C0CC80124E0959587952C
:1009B0002A95E1F70E944C0C802F8295807F0E943F
:1009C0004C0C80912B00806180932B001F910F9124
:1009D00008958130910521F4809128008F7E05C013
:1009E000892B29F4809128008F7D8093280080E254
:1009F0000E944C0C80912800806180932800809197
:100A0000280080628093280008956F927F928F92D1
:100A10009F92AF92BF92CF92DF92EF92FF920F938D
:100A20001F930197D9F4809128008F7E809328002E
:100A300080E60E944C0C80E00E944C0C682E80E006
:100A40000E944C0CE82E80E00E944C0CA82E80E006
:100A50000E944C0C9091280090611AC0809128004F
:100A60008F7D8093280080E60E944C0C80E00E94DD
:100A70004C0C682E80E00E944C0CE82E80E00E9416
:100A80004C0CA82E80E00E944C0C909128009062A3
:100A900090932800772488249924562D44273327BF
:100AA0002227FF2400E010E08701FF24EE242E29F6
:100AB0003F29402B512B90E0A0E0B0E0282B392BB0
:100AC0004A2B5B2BBB24CC24DD24DC2CCB2CBA2C76
:100AD000AA242A293B294C295D29B901CA011F9161
:100AE0000F91FF90EF90DF90CF90BF90AF909F90CD
:100AF0008F907F906F9008950197F9F4809128006E
:100B00008F7E8093280088E80E944C0C80E00E9431
:100B10004C0C8091280080618093280080912800EF
:100B20008F7E8093280080E90E944C0C80E00E9418
:100B30004C0C8091280080611EC0809128008F7D20
:100B40008093280088E80E944C0C80E00E944C0CA6
:100B500080912800806280932800809128008F7DFA
:100B60008093280080E90E944C0C80E00E944C0C8D
:100B70008091280080628093280008952F923F92F0
:100B80004F925F926F927F928F929F92AF92BF929D
:100B9000CF92DF92EF92FF920F931F93DF93CF9349
:100BA000CDB7DEB760970FB6F894DEBF0FBECDBFEE
:100BB0003B014C0129873A874B875C87A40193014D
:100BC0000E944A177B018C0169857A858B859C85FB
:100BD0009B01AC010E944A179B01AC01C801B701FF
:100BE0000E94CD146D877E878F87988B24E833E72A
:100BF00045EB56E40E94CC1420E032EB44ED56E481
:100C00000E94CC142FEF33E744E457E40E949A1576
:100C10007B018C01A80197010E944A179B01AC013E
:100C200060E070E080E89FE30E94CC140E94B71758
:100C30009058A80197010E9440155B016C010E9429
:100C400097157B018C01C601B5010E94AD171B01F0
:100C50002C01C801B70120E030E045E253E40E94D6
:100C60004A1726E636E648E153E40E94CD149B017C
:100C7000AC01C401B3010E944A177B018C01698554
:100C80007A858B859C8520E030E045E253E40E9424
:100C90004A17A20191010E944A179B01AC01C801A9
:100CA000B7010E94CD142D853E854F8558890E943D
:100CB0009A157B018C01A80197010E944A179B019C
:100CC000AC0160E070E080E89FE30E94CC140E94D9
:100CD000B717A80197010E94401520E030E044E3D7
:100CE00053E40E944A172BED3FE049E450E40E9490
:100CF0009A150E940216162F69837A838B839C8330
:100D0000C601B50120E030E044E353E40E944A17F5
:100D10002BED3FE049E450E40E949A150E94021630
:100D20006D837E838F8398873A814B815C81EE81CE
:100D3000212F7E2F8F81988560960FB6F894DEBFA5
:100D40000FBECDBFCF91DF911F910F91FF90EF901C
:100D5000DF90CF90BF90AF909F908F907F906F90DB
:100D60005F904F903F902F9008952F923F924F9217
:100D70005F926F927F928F929F92AF92BF92CF922B
:100D8000DF92EF92FF920F931F93DF93CF93CDB734
:100D9000DEB760970FB6F894DEBF0FBECDBF590126
:100DA0006A012BED3FE049E450E40E944A1720E03D
:100DB00030E044E353E40E949A157B018C01C601A4
:100DC000B5012BED3FE049E450E40E944A1720E0D2
:100DD00030E044E353E40E949A155B016C01B701D3
:100DE000C8010E94971569877A878B879C8720E0C6
:100DF00030E045E253E40E944A176D877E878F8773
:100E0000988BB501C6010E9497151B012C01B701F3
:100E1000C8010E94AD173B014C01B501C6010E94FB
:100E2000AD175B016C01C401B30126E636E648E16B
:100E300053E40E944A1723E333EB4BE053E40E9450
:100E4000CD147B018C016D857E858F859889A601E7
:100E500095010E944A179B01AC01C801B7010E948D
:100E6000CD147B018C01C201B10120E030E045E2EC
:100E700053E40E944A17A40193010E944A179B0160
:100E8000AC01C801B7010E94CD146D837E838F83AE
:100E9000988769857A858B859C8526E636E648E1C4
:100EA00053E40E944A177B018C016D857E858F85F6
:100EB0009889A20191010E944A179B01AC01C801C7
:100EC000B7010E94CD147B018C01C401B30120E065
:100ED00030E045E253EC0E944A17A60195010E94BA
:100EE0004A179B01AC01C801B7010E94CD14698368
:100EF0007A838B839C8329813A814B815C816D81CC
:100F00007E818F81988560960FB6F894DEBF0FBE04
:100F1000CDBFCF91DF911F910F91FF90EF90DF90A8
:100F2000CF90BF90AF909F908F907F906F905F9089
:100F30004F903F902F9008956F927F928F929F9243
:100F4000AF92BF92CF92DF92EF92FF920F931F93D7
:100F5000DF93CF93CDB7DEB72C970FB6F894DEBFF3
:100F60000FBECDBFE982FA820B831C832D833E83A3
:100F70004F83588769877A878B879C87B601A980BA
:100F8000BA80CB80DC8069847A848B849C8480E006
:100F900090E00E9433162D813E814F8158850E943A
:100FA000CD147B018C0120E030E040E050E00E9455
:100FB000931518162CF0E0E070E080E86FEB12C09B
:100FC000C601B501A80197010E949A15A4019301D9
:100FD0000E94CC1420E030E040E251E40E944A1725
:100FE000E62F692F2E2F372F482F562FB901CA0110
:100FF0002C960FB6F894DEBF0FBECDBFCF91DF9118
:101000001F910F91FF90EF90DF90CF90BF90AF9026
:101010009F908F907F906F9008954F925F926F9204
:101020007F928F929F92AF92BF92CF92DF92EF9278
:10103000FF920F931F93DF93CF93CDB7DEB72A971D
:101040000FB6F894DEBF0FBECDBF5C01E982FA8215
:101050000B831C832D833E834F83588769877A8750
:101060004DA45EA489809A806F80788489A59AA512
:101070000E94B7046C01ED8CFE8C0F8D18A129A184
:101080003AA14BA15CA16DA17EA18FA198A50E9460
:101090009C070E940716AB01BC01FA0144155505D7
:1010A00050F494012F5F3F4F8BA59CA582179307A7
:1010B00064F4BA010CC094012150304037FF05C0E0
:1010C00060E070E021E030E002C060E070E0D50157
:1010D00017967C926E92169719967C936E9318973A
:1010E00011963C932E931596FC93EE9314971396BA
:1010F0005C924E921297C5012A960FB6F894DEBF05
:101100000FBECDBFCF91DF911F910F91FF90EF9058
:10111000DF90CF90BF90AF909F908F907F906F9017
:101120005F904F9008952F923F924F925F926F92EF
:101130007F928F929F92AF92BF92CF92DF92EF9267
:10114000FF920F931F93DF93CF93CDB7DEB71901B3
:101150002A010E94CC143B014C016D897E898F8944
:10116000988DA60195010E94CC149B01AC01C4018D
:10117000B3010E944A173B014C01C801B701A2010B
:1011800091010E94CC149B01AC01C401B3010E94E7
:101190009A15A60195010E94CD14CF91DF911F9160
:1011A0000F91FF90EF90DF90CF90BF90AF909F9006
:1011B0008F907F906F905F904F903F902F90089509
:1011C000DF93CF93CDB7DEB728970FB6F894DEBF85
:1011D0000FBECDBF873D91054CF420E030E048EDD7
:1011E00051EC80E090E0ABE6B3E458C08C3D910553
:1011F0004CF420E030E048EB51EC80E090E0A2E7D6
:10120000B3E44CC0813E91054CF420E030E040EA6C
:1012100051EC80E090E0A5E7B3E440C0863E910544
:101220004CF420E030E040EA51EC80E090E0ACE7A4
:10123000B3E434C08B3E91054CF420E030E040EC48
:1012400050EC80E090E0A2E8B3E428C0803F910534
:101250002CF420E030E040E050EC07C0853F9105E1
:101260004CF420E030E040E050E080E090E8A4E87A
:10127000B3E414C08A3F91054CF020E030E040E236
:1012800051EC80E090E8AEE8B3E408C020E030E044
:1012900040EC50EC80E090E8A9E8B3E42D833E8375
:1012A0004F83588789839A83AB83BC8329813A8192
:1012B0004B815C816D817E818F81988528960FB6E8
:1012C000F894DEBF0FBECDBFCF91DF9108952F926E
:1012D0003F924F925F926F927F928F929F92AF92C6
:1012E000BF92CF92DF92EF92FF920F931F93DF9303
:1012F000CF93CDB7DEB73B014C0119012A01C601DE
:10130000B5012F89388D498D5A8D621B730B840B63
:10131000950B0E9435165B016C01C401B301A60157
:1013200095010E944A173B014C01C601B5012F8D62
:1013300038A149A15AA10E94CD149B01AC01C20160
:10134000B1010E944A179B01AC01C401B3010E9484
:10135000CD143B014C01C601B5012BA13CA14DA10F
:101360005EA10E94CC149B01AC01C801B7010E9490
:101370004A179B01AC01C401B3010E94CD1429ADF1
:101380003AAD4BAD5CAD0E94CD140E9402169B019C
:10139000AC01CA01CF91DF911F910F91FF90EF90A7
:1013A000DF90CF90BF90AF909F908F907F906F9085
:1013B0005F904F903F902F9008952F923F924F92C1
:1013C0005F926F927F928F929F92AF92BF92CF92D5
:1013D000DF92EF92FF920F931F93DF93CF9300D092
:1013E00000D0CDB7DEB73B014C015A8349833C8323
:1013F0002B839801222433242101261A370A480A14
:10140000590A5801CC24B7FCC094DC2CA616B706A8
:10141000C806D9061CF48601750110C088279927D3
:10142000801B910B7C010027F7FC0095102FE61420
:10143000F7040805190514F4840173018827992716
:10144000821B930B9C01442737FD4095542F221695
:101450003306440655064CF0A60195012A143B04B8
:101460004C045D0414F4A201910197FE08C08B8125
:101470009C81B9010E94C90489819A8107C0898130
:101480009A81B7010E94C9048B819C8160E070E061
:101490000E94C9040F900F900F900F90CF91DF9191
:1014A0001F910F91FF90EF90DF90CF90BF90AF9082
:1014B0009F908F907F906F905F904F903F902F9074
:1014C00008952F923F924F925F926F927F928F92E8
:1014D0009F92AF92BF92CF92DF92EF92FF920F93C3
:1014E0001F93DF93CF93CDB7DEB7EE970FB6F89487
:1014F000DEBF0FBECDBFFE01E556FF4F208131811B
:101500004281538129AF3AAF4BAF5CAFFE01E15648
:10151000FF4F6080718082809380FE01ED55FF4F08
:10152000408151815EAF4DAF69968CAD9DADAEAD42
:10153000BFAD699789AB9AABABABBCABA9962CADF1
:101540003DAD4EAD5FADA9972DA73EA74FA758ABB8
:10155000AB964EAD5FADAB975CA74BA7AD968EAD8E
:101560009FADAD979AA789A7ED96ECACFDAC0EADFB
:101570001FADED97C357DF4FA881B981CD58D0403B
:10158000B8A7AFA3C157DF4F28813981CF58D040CA
:101590003EA32DA369A97AA98BA99CA96E0D7F1DD5
:1015A000801F911F0E9435160E9497152CE63CE182
:1015B00046ED5EE30E944A171B012C0169A97AA936
:1015C0008BA99CA90E9435160E94971528ED3EE331
:1015D00042E95FE30E944A17A20191010E94CD14E3
:1015E0006DAB7EAB8FAB98AF89E29CE5AFE8BEE315
:1015F000FE01EB56FF4F80839183A283B383FE01EC
:10160000EF56FF4F2082318242825382DE011196D3
:10161000FE01E958FF4F84E201900D928150E1F7FD
:101620008B819C81AD81BE81681A790A8A0A9B0AE6
:10163000C401B3010E9435167B018C0120E030E02B
:1016400043E453E40E944A175B016C01C801B701EF
:101650002B853C854D855E850E94CD149B01AC0198
:10166000C601B5010E94CD145B016C01C801B70130
:101670002F85388949895A890E94CC1420E030E0AE
:1016800040EA51E40E944A179B01AC01C601B50132
:101690000E94CD14A20191010E94CD140E94021655
:1016A000962E872E782E692E8CEE91E5A8EFBEE35C
:1016B000E5968CAF9DAFAEAFBFAFE5972DA93EA924
:1016C0004FA958ADE1962CAF3DAF4EAF5FAFE1975C
:1016D00089A99AA9ABA9BCA969968CAF9DAFAEAFF9
:1016E000BFAF69972DA53EA54FA558A9A9962CAFC8
:1016F0003DAF4EAF5FAFA9974BA55CA5AB965FAF73
:101700004EAFAB9789A59AA5AD969FAF8EAFAD971B
:10171000DE011196FE01ED5AFF4F84E201900D9219
:101720008150E1F78B819C81AD81BE8129AD3AADBD
:101730004BAD5CAD281B390B4A0B5B0BCA01B901E1
:101740000E9435167B018C0120E030E042E853E432
:101750000E944A175B016C01C801B7012B853C85CB
:101760004D855E850E94CD149B01AC01C601B5017B
:101770000E94CD145B016C01C801B7012F85388927
:1017800049895A890E94CC149B01AC01C601B5015C
:101790000E94CD142DA93EA94FA958AD0E94CD1489
:1017A0000E9402166B017C01692D782D872D962DE4
:1017B0004FA158A52DA13EA10DAD1EAD0E94DD0982
:1017C000B601C7014BA55CA529A53AA50DAD1EAD77
:1017D0000E94DD09EE960FB6F894DEBF0FBECDBFB6
:1017E000CF91DF911F910F91FF90EF90DF90CF90FD
:1017F000BF90AF909F908F907F906F905F904F9031
:101800003F902F900895809124008F7B8093240037
:10181000809124008062809324008091240080685D
:101820008093240080912400806180932400809123
:101830002A00806180932A00809127008061809334
:1018400027008091270080628093270080912A00E2
:10185000806880932A0080912B00806880932B0001
:101860008091280080628093280080912B00806105
:1018700080932B00809128008061809328008091C4
:1018800028008860809328008091280084608093DD
:10189000280083E58CBD08958EBD0DB407FEFDCFF5
:1018A0008EB5089592E094BD8FEF87BD90936E0042
:1018B00095BD0895272F382F492F55272093CD0008
:1018C0006093CC0088E18093C9008EE08093CA00C9
:1018D0000895982F8091C80085FFFCCF9093CE008B
:1018E00008958091C80087FFFCCF8091CE000895B5
:1018F0001F920F920FB60F9211248F939F93AF9365
:10190000BF938091D6019091D701A091D801B09159
:10191000D9010196A11DB11D8093D6019093D701E5
:10192000A093D801B093D9018091DF019091E0019B
:10193000A091E101B091E2010196A11DB11D80933A
:10194000DF019093E001A093E101B093E201809167
:10195000D6019091D701A091D801B091D9010997F2
:10196000A105B10599F48091DA019091DB01A09174
:10197000DC01B091DD010196A11DB11D8093DA015A
:101980009093DB01A093DC01B093DD018091DF0136
:101990009091E001A091E101B091E2018A359105B9
:1019A000A105B10559F481E08093DE011092DF01B9
:1019B0001092E0011092E1011092E201BF91AF910B
:1019C0009F918F910F900FBE0F901F9018952F929F
:1019D0003F924F925F926F927F928F929F92AF92BF
:1019E000BF92CF92DF92EF92FF920F931F93DF93FC
:1019F000CF93CDB7DEB7C659D0400FB6F894DEBF4F
:101A00000FBECDBF78940E94BA1469E070E080E008
:101A100090E00E945A0C82E090E00E94B00480E0C6
:101A200090E060E070E040E050E00E94520C0E94C4
:101A3000030C1092D6011092D7011092D801109287
:101A4000D9011092DA011092DB011092DC011092A0
:101A5000DD011092DF011092E0011092E10110927D
:101A6000E2011092DE011EAE1DAE81E090E09CAF5F
:101A70008BAF82E090E0A1969FAF8EAFA19783E0FD
:101A800090E0A3969FAF8EAFA3976F961CAE1DAE4E
:101A90001EAE1FAE6F971FAA18AE19AE1AAE80E029
:101AA00090E0A0E0B0E063968CAF9DAFAEAFBFAF6B
:101AB00063978BA79CA7ADA7BEA76B968CAF9DAF76
:101AC000AEAFBFAF6B978BAB9CABADABBEAB67960E
:101AD0008CAF9DAFAEAFBFAF67978FA798ABA9ABE9
:101AE000BAABCB56DF4F19821882C559D040CD56BC
:101AF000DF4F19821882C359D040CF56DF4F198269
:101B00001882C159D040C157DF4F19821882CF586F
:101B1000D040C357DF4F19821882CD58D040C557E7
:101B2000DF4F19821882CB58D040C657DF4F18823A
:101B3000CA58D040C757DF4F1882C958D040C9573C
:101B4000DF4F19821882C758D040CB57DF4F198218
:101B50001882C558D040CF57DF4F188219821A8299
:101B60001B82C158D040C358DF4F188219821A8295
:101B70001B82CD57D04086C61092DE0182E090E0F5
:101B80000E94B7043C019EA38DA383E090E00E94D5
:101B9000B7042B969FAF8EAF2B9700D000D00DB718
:101BA0001EB70F5F1F4FA0E0B0E0BC01CD010E9447
:101BB000331620E030E044EB52E4D8012D933D93FE
:101BC0004D935C93139720E030E045EA53E40F2EE9
:101BD000F0E0EF2EF0E8FF2EF6E30F2FF4E41F2FD6
:101BE000F02D0F2EF0E0AF2EF0E0BF2EF0E0CF2E64
:101BF000F0E0DF2EF02D0E9493080E9402161B01D8
:101C00002C012F966CAF7DAF8EAF9FAF2F970DB786
:101C10001EB70F5F1F4F88249924C401B3010E948F
:101C2000331620E030E040EA52E4F80120833183AB
:101C30004283538320E030E04BE953E40F2EF0E081
:101C4000EF2EF0E8FF2EFCE70F2FF4E41F2FF02D0E
:101C50000F2EF0E0AF2EF0E0BF2EF4EBCF2EF2EC23
:101C6000DF2EF02D0E9493080E9402167B018C014A
:101C70000F900F900F900F90C757DF4FF881C95802
:101C8000D040F33009F40EC3F43038F4F13009F4E5
:101C9000C3C0F23008F03EC20FC0C757DF4F2881E3
:101CA000C958D040253009F423C4253008F46FC347
:101CB000263009F0E7C506C580E091E00E94CD1905
:101CC00087E090E060E070E00E947814EFA2F8A650
:101CD00009A71AA78DB79EB7825590400FB6F89402
:101CE0009EBF0FBE8DBFEDB7FEB731969F01AE010F
:101CF000475B5F4F84E2DA010D90AD01D9010D928F
:101D00009D018150C1F79F012C5D3F4FAE014B5D9E
:101D10005F4F84E2DA010D90AD01D9010D929D0172
:101D20008150C1F7E85BFF4F88E290E0A0E0B0E0AF
:101D300081939193A193B19384EC9FEFAFEFBFEFA9
:101D400081939193A193B1938FEF9FE091838083CF
:101D50000E94610AEDB7FEB7EE5AFF4F0FB6F89436
:101D6000FEBF0FBEEDBF81E090E069E670E00E942B
:101D70007814C701CE96059708F084C5B101685262
:101D80007040633071050CF07DC56E5F7F4F0CF4C1
:101D900079C5CF56DF4F28813981C159D0402F5F97
:101DA0003F4FCF56DF4F39832883C159D0402A3562
:101DB000310509F067C581E090E09A8B898B9C8F93
:101DC0008B8FCB56DF4F19821882C559D040CD5624
:101DD000DF4F19821882C359D040C357DF4F198291
:101DE0001882CD58D040C557DF4F19821882CB5882
:101DF000D04031E0C757DF4F3883C958D040C9576A
:101E0000DF4F19821882C758D040CB57DF4F198255
:101E10001882C558D04036C586E091E00E94CD19A1
:101E200080E090E060E070E00E947814EFA2F8A6F5
:101E300009A71AA78DB79EB7825590400FB6F894A0
:101E40009EBF0FBE8DBFEDB7FEB731969F01AE01AD
:101E5000475B5F4F84E2DA010D90AD01D9010D922D
:101E60009D018150C1F79F012C5D3F4FAE014B5D3D
:101E70005F4F84E2DA010D90AD01D9010D929D0111
:101E80008150C1F7E85BFF4F88E290E0A0E0B0E04E
:101E900081939193A193B19384EC9FEFAFEFBFEF48
:101EA00081939193A193B1938FEF9FE0918380836E
:101EB0000E94610AC957DF4FE881F981C758D040B5
:101EC000FA8FE98F2DB73EB72E5A3F4F0FB6F894D1
:101ED0003EBF0FBE2DBF8DB79EB742970FB6F89489
:101EE0009EBF0FBE8DBFEDB7FEB731969F014AEC86
:101EF00051E08CE0DA010D90AD01D9010D929D0108
:101F00008150C1F787E090E09587848784E190E075
:101F1000978786878CED90E0918B808BCE014196E0
:101F2000E988FA880B891C892D893E894F89588D4B
:101F3000698D7A8D0E940D08E98DFA8DC957DF4FA2
:101F4000F983E883C758D040CB57DF4F28813981C8
:101F5000C558D0403CA32BA3EDB7FEB731969F01E7
:101F60004AEC51E08CE0DA010D90AD01D9010D92FF
:101F70009D018150C1F785E090E09587848784E1D9
:101F800090E0978786878CED90E0918B808BCE01D7
:101F90004B96EB8CFC8C0D8D1E8D2F8D38A149A19D
:101FA0005AA16BA17CA10E940D08EBA1FCA1CB570B
:101FB000DF4FF983E883C558D0402DB73EB72E5E7A
:101FC0003F4F0FB6F8943EBF0FBE2DBFC957DF4F2E
:101FD00088819981C758D0400097B9F0C357DF4F27
:101FE000A881B981CD58D040AB2B79F4CC96CB5693
:101FF000DF4F99838883C559D040E1E0F0E0C357B3
:10200000DF4FF983E883CD58D040CB57DF4F28818D
:102010003981C558D04021153105C1F0C557DF4F72
:1020200088819981CB58D040892B81F4245C3F4F23
:10203000CD56DF4F39832883C359D040A1E0B0E0AB
:10204000C557DF4FB983A883CB58D040CB56DF4F5D
:10205000E881F981C559D040309709F44BC0CD567D
:10206000DF4F28813981C359D0402115310509F44A
:1020700041C0C9018E0F9F1F62E070E00E941E18D0
:10208000CB01C157DF4F79836883CF58D0400E947E
:10209000E008AE962FAFAE97AF963FAFAF97E09602
:1020A0004FAFE097E1965FAFE197E2966FAFE297AF
:1020B000E3967FAFE397E4968FAFE497E5969FAF03
:1020C000E597DE011996FE01E359FF4F88E0019084
:1020D0000D928150E1F780E29EE42CEC31E0F901B1
:1020E0003197F1F70197D9F732E0C757DF4F3883BF
:1020F000C958D0408DB79EB708970FB6F8949EBFC9
:102100000FBE8DBFEDB7FEB731962EE031E0ADB713
:10211000BEB7C7C18DE391E00E94CD1969857A856C
:102120008B859C852D853E854F8558890E94BE05EF
:10213000E6962FAFE697E7963FAFE797FE01E9589F
:10214000FF4F4083FE01E858FF4F5083FE01E758E0
:10215000FF4F6083FE01E658FF4F7083FE01E55894
:10216000FF4F8083FE01E458FF4F9083DE011196FC
:10217000FE01EB58FF4F88E001900D928150E1F78E
:102180008D819E81AF81B885CF57DF4F888399833A
:10219000AA83BB83C158D04089819A81AB81BC811D
:1021A000C358DF4F88839983AA83BB83CD57D04020
:1021B000EFA2F8A609A71AA7ADB7BEB7A255B040BF
:1021C0000FB6F894BEBF0FBEADBFEDB7FEB73196E8
:1021D0009F01AE01475B5F4F84E2DA010D90AD01D4
:1021E000D9010D929D018150C1F79F012C5D3F4F98
:1021F000AE014B5D5F4F84E2DA010D90AD01D90174
:102200000D929D018150C1F7E85BFF4FC358DF4F2E
:1022100088819981AA81BB81CD57D04081939193C8
:10222000A193B193CF57DF4F88819981AA81BB8158
:10223000C158D04081939193A193B19388EE93E0DC
:10224000918380830E94610A82E090E0CF57DF4F44
:10225000A881B981C158D0408A1B9B0B8E0D9F1D50
:10226000EDB7FEB7EE5AFF4F0FB6F894FEBF0FBEA4
:10227000EDBF059708F006C3B101EF962EAD3FAD57
:10228000EF97621B730B633071050CF0FBC26E5F3E
:102290007F4F0CF4F7C283E0C757DF4F8883C958DC
:1022A000D040F0C286E491E00E94CD19EFA2F8A6DA
:1022B00009A71AA7ADB7BEB7A255B0400FB6F8949C
:1022C000BEBF0FBEADBFEDB7FEB731969F01AE01E9
:1022D000475B5F4F84E2DA010D90AD01D9010D92A9
:1022E0009D018150C1F79F012C5D3F4FAE014B5DB9
:1022F0005F4F84E2DA010D90AD01D9010D929D018D
:102300008150C1F7E85BFF4FC358DF4F8881998147
:10231000AA81BB81CD57D04081939193A193B19372
:10232000CF57DF4F88819981AA81BB81C158D040A6
:1023300081939193A193B1938FEF9FE091838083D9
:102340000E94610AADB7BEB7AE5ABF4F0FB6F89440
:10235000BEBF0FBEADBF80E090E06AEA70E00E94B1
:10236000781488E893E12CEC31E0F9013197F1F72A
:102370000197D9F7CF56DF4F19821882C159D04043
:10238000B4E0C757DF4FB883C958D0407BC28FE451
:1023900091E00E94CD1980E090E06AEA70E00E942E
:1023A0007814EFA2F8A609A71AA7EDB7FEB7E25571
:1023B000F0400FB6F894FEBF0FBEEDBF31969F01FF
:1023C000AE01475B5F4F84E2DA010D90AD01D901A8
:1023D0000D929D018150C1F79F012C5D3F4FAE01D1
:1023E0004B5D5F4F84E2DA010D90AD01D9010D9292
:1023F0009D018150C1F7E85BFF4F8AE590E0A0E0C6
:10240000B0E081939193A193B19386EA9FEFAFEFF0
:10241000BFEF81939193A193B1938FEF9FE091834D
:1024200080830E94610AC701845A9F4FEDB7FEB7AF
:10243000EE5AFF4F0FB6F894FEBF0FBEEDBF0597E3
:1024400008F020C2B1016A557040633071050CF08C
:1024500019C26E5F7F4F0CF415C2CF56DF4F288133
:102460003981C159D0402F5F3F4FCF56DF4F39835D
:102470002883C159D0402C52314031F495E0C757E0
:10248000DF4F9883C958D040ADB7BEB718970FB685
:10249000F894BEBF0FBEADBFEDB7FEB731962EE0CC
:1024A00031E012963C932E931197CB56DF4F8881E3
:1024B0009981C559D04093838283CD56DF4FA8813F
:1024C000B981C359D040B583A483C157DF4F288158
:1024D0003981CF58D040378326830E94B8198DB7F1
:1024E0009EB708960FB6F8949EBF0FBE8DBFCAC1A7
:1024F000882499249EEE692E92E0792E0F2EF0E02A
:102500002F2EF0E03F2EF0EA4F2EF2E45F2EF02D5A
:10251000EFA2F8A609A71AA7ADB7BEB7A255B0405B
:102520000FB6F894BEBF0FBEADBFEDB7FEB7319684
:102530009F01AE01475B5F4F84E2DA010D90AD0170
:10254000D9010D929D018150C1F79F012C5D3F4F34
:10255000AE014B5D5F4F84E2DA010D90AD01D90110
:102560000D929D018150C1F7E85BFF4F8AE590E035
:10257000A0E0B0E081939193A193B19384EC9FEF9D
:10258000AFEFBFEF81939193A193B193718260827A
:102590000E94610AADB7BEB7AE5ABF4F0FB6F894EE
:1025A000BEBF0FBEADBF82E090E00E94B7049EA305
:1025B0008DA300D000D00DB71EB70F5F1F4FA0E056
:1025C000B0E0BC01CD010E943316F80120823182B7
:1025D0004282538220E030E04BE953E40F2EF0E0DA
:1025E000EF2EF0E8FF2EFCE70F2FF4E41F2FF02D65
:1025F0000F2EF0E0AF2EF0E0BF2EF4EBCF2EF2EC7A
:10260000DF2EF02D0E9493080E9402167B018C01A0
:102610000F900F900F900F906B3AFFEF7F07FFEF37
:102620008F07FFEF9F075CF48AE591E00E94CD19C8
:1026300022E0C657DF4F2883CA58D04012C06B3AF9
:102640003FEF73073FEF83073FEF930751F08AE6B1
:1026500091E00E94CD1981E0C657DF4F8883CA58A8
:10266000D04000D000D000D0EAE7F1E0ADB7BEB76F
:102670001296FC93EE9311971396ED92FD920D93A3
:102680001C9316970E94B8190894811C911CEDB7F1
:10269000FEB736960FB6F894FEBF0FBEEDBFF8EE4C
:1026A0008F16F3E09F0609F033CFCF56DF4F198224
:1026B0001882C159D04026E0C757DF4F2883C95838
:1026C000D040E0C0C657DF4F3881CA58D0403230C2
:1026D00049F481E090E066E470E00E94781480E8BC
:1026E00091E008C081E090E061E970E00E94781418
:1026F00087E891E00E94CD19EFA2F8A609A71AA7D2
:102700008DB79EB7825590400FB6F8949EBF0FBE0E
:102710008DBFEDB7FEB731969F01AE01475B5F4FAE
:1027200084E2DA010D90AD01D9010D929D01815035
:10273000C1F79F012C5D3F4FAE014B5D5F4F84E2BF
:10274000DA010D90AD01D9010D929D018150C1F7C3
:10275000E85BFF4F8AE590E0A0E0B0E081939193C1
:10276000A193B19380E590E0A0E0B0E081939193D4
:10277000A193B1938FEF9FE0918380830E94610AC0
:1027800087010055104086EAE82E8FEFF82EE20C04
:10279000F31CEDB7FEB7EE5AFF4F0FB6F894FEBF2D
:1027A0000FBEEDBF00D000D000D0EDB7FEB7319620
:1027B0002EE831E0ADB7BEB712963C932E93119739
:1027C00013830283F582E4820E94B8190D5F1F4FC4
:1027D0008DB79EB706960FB6F8949EBF0FBE8DBFFD
:1027E0000730110508F04EC093E0E916F1040CF033
:1027F00049C0AEEFEA16AFEFFA060CF443C0CF566D
:10280000DF4FE881F981C159D0403196CF56DF4F73
:10281000F983E883C159D040EC52F140C9F400E09B
:1028200010E080E090E060E070E00E9478140F5FBC
:102830001F4F31E0043F1307A1F7CF56DF4F198236
:102840001882C159D040C757DF4F1882C958D040AD
:1028500000D000D0E7E9F1E0ADB7BEB71296FC9327
:10286000EE931197CF56DF4F28813981C159D0405F
:1028700014963C932E9313970E94B8190F900F90C3
:102880000F900F908091DE018823E1F375C99B01C1
:10289000AC0184E0220F331F441F551F8A95D1F7E6
:1028A00060E070E489E191E00E94311821503040ED
:1028B0003093C5002093C40088E18093C10086E076
:1028C0008093C2000895982F8091C00085FFFCCFAF
:1028D0009093C6000895FC0107C08091C00085FF59
:1028E000FCCF9093C600319690819923B1F708955B
:1028F0000F931F93DF93CF93CDB7DEB764970FB6D7
:10290000F894DEBF0FBECDBF2DB73EB72850304084
:102910000FB6F8943EBF0FBE2DBFEDB7FEB7319690
:102920008E010F5F1F4FADB7BEB712961C930E936B
:1029300011972CE931E03383228395838483778355
:1029400066830E94021A2DB73EB7285F3F4F0FB62D
:10295000F8943EBF0FBE2DBFC8010E946B14649651
:102960000FB6F894DEBF0FBECDBFCF91DF911F91A0
:102970000F91089580EB91E09093E6018093E5013B
:1029800060E072EC81E090E00E94471408950E949C
:10299000690C80E090E008955058BB27AA270ED01C
:1029A00027C2F0D130F0F5D120F031F49F3F11F47F
:1029B0001EF4C0C10EF4E095E7FBB6C1E92F3AD290
:1029C00080F3BA17620773078407950718F071F44C
:1029D0009EF552C20EF4E0950B2EBA2FA02D0B01DE
:1029E000B90190010C01CA01A0011124FF27591B54
:1029F00099F0593F50F4503E68F11A16F040A22F5A
:102A0000232F342F4427585FF3CF469537952795CA
:102A1000A795F0405395C9F77EF41F16BA0B620BC9
:102A2000730B840BBAF09150A1F0FF0FBB1F661F10
:102A3000771F881FC2F70EC0BA0F621F731F841F53
:102A400048F4879577956795B795F7959E3F08F079
:102A5000B3CF9395880F08F09927EE0F9795879538
:102A6000089590D158F080E891E009F49EEF91D15B
:102A700028F040E851E059F45EEF09C05BC1FCC1A9
:102A8000E92FE078D7D168F3092E052AC1F326177C
:102A900037074807590738F00E2E07F8E02569F088
:102AA000E025E0640AC0EF6307F8009407FADB0151
:102AB000B9019D01DC01CA01AD01EF934AD098D163
:102AC0000AD05F91552331F02BED3FE049E450FDF2
:102AD00049EC63CF0895DF93DD27B92FBF7740E836
:102AE0005FE31616170648075B0710F4D92FCBD102
:102AF0009F938F937F936F9378D2ECE7F0E01DD193
:102B000077D12F913F914F915F91D0D1DD2349F043
:102B10009058A2EA2AED3FE049EC5FE3D0785D27C8
:102B20004DDFDF9165C1DCD008F481E0089539D133
:102B3000E3956FC10CD05CC12CD140F023D130F0B3
:102B400021F45F3F19F0F0C0511197C1F3C072D169
:102B500098F39923C9F35523B1F3951B550BBB2764
:102B6000AA2762177307840738F09F5F5F4F220F11
:102B7000331F441FAA1FA9F333D00E2E3AF0E0E80A
:102B800030D091505040E695001CCAF729D0FE2F56
:102B900027D0660F771F881FBB1F261737074807E8
:102BA000AB07B0E809F0BB0B802DBF01FF2793589E
:102BB0005F4F2AF09E3F510568F0B6C05EC15F3F8F
:102BC000ECF3983EDCF3869577956795B795F79586
:102BD0009F5FC9F7880F911D9695879597F908957E
:102BE000E1E0660F771F881FBB1F6217730784071A
:102BF000BA0720F0621B730B840BBA0BEE1F88F729
:102C0000E095089504D06894B11137C108951AD1A0
:102C100088F09F5790F0B92F9927B751A0F0D1F0C5
:102C2000660F771F881F991F1AF0BA95C9F712C04F
:102C3000B13081F021D1B1E008951EC1672F782F06
:102C40008827B85F39F0B93FCCF3869577956795BB
:102C5000B395D9F73EF490958095709561957F4F27
:102C60008F4F9F4F0895E89409C097FB3EF49095CD
:102C70008095709561957F4F8F4F9F4F9923A9F055
:102C8000F92F96E9BB279395F695879577956795E4
:102C9000B795F111F8CFFAF4BB0F11F460FF1BC028
:102CA0006F5F7F4F8F4F9F4F16C0882311F096E9BB
:102CB00011C0772321F09EE8872F762F05C0662369
:102CC00071F096E8862F70E060E02AF09A95660F22
:102CD000771F881FDAF7880F9695879597F90895DB
:102CE000990F0008550FAA0BE0E8FEEF161617061D
:102CF000E807F907C0F012161306E407F50798F085
:102D0000621B730B840B950B39F40A2661F0232B9D
:102D1000242B252B21F408950A2609F4A140A69519
:102D20008FEF811D811D089597F99F6780E870E0FE
:102D300060E008959FEF80EC0895DF93CF931F9399
:102D40000F93FF92EF92DF927B018C01689405C094
:102D5000DA2EEF01ABD0FE01E894A59125913591D3
:102D600045915591AEF3EF0129DEFE019701A801CF
:102D7000DA9479F7DF90EF90FF900F911F91CF9148
:102D8000DF91089500240A941616170618060906FE
:102D9000089500240A9412161306140605060895D1
:102DA000C9CF50D0E8F3E894E0E0BB279F57F0F09C
:102DB0002AED3FE049EC06C0EE0FBB0F661F771F00
:102DC000881F28F0B23A62077307840728F0B25AC6
:102DD000620B730B840BE3959A9572F7803830F48D
:102DE0009A95BB0F661F771F881FD2F7904802C1C4
:102DF000092E0394000C11F4882352F0BB0F40F409
:102E0000BF2B11F460FF04C06F5F7F4F8F4F9F4F48
:102E10000895EF93E0FF06C0A2EA2AED3FE049ECF7
:102E20005FEBCCDDE5DF0F90039401FC9058E9EAFD
:102E3000F0E0F3C057FD9058440F551F59F05F3F25
:102E400071F04795880F97FB991F61F09F3F79F0CC
:102E500087950895121613061406551FF2CF46954E
:102E6000F1DF08C0161617061806991FF1CF8695D0
:102E70007105610508940895E894BB2766277727B4
:102E8000CB0197F908959B01AC0160E070E080E808
:102E90009FE350CE0BD0ACCF75DF28F07ADF18F06F
:102EA000952309F041CF46CF1124E7CFC3DFA0F32C
:102EB000959FD1F3950F50E0551F629FF001729FCF
:102EC000BB27F00DB11D639FAA27F00DB11DAA1FEE
:102ED000649F6627B00DA11D661F829F2227B00D3B
:102EE000A11D621F739FB00DA11D621F839FA00DC6
:102EF000611D221F749F3327A00D611D231F849F16
:102F0000600D211D822F762F6A2F11249F5750406C
:102F10008AF0E1F088234AF0EE0FFF1FBB1F661F07
:102F2000771F881F91505040A9F79E3F510570F0C0
:102F3000FBCEA3CF5F3FECF3983EDCF3869577950D
:102F40006795B795F795E7959F5FC1F7FE2B880FBB
:102F5000911D9695879597F908959F9322DF0F907D
:102F600007FCEE5F56CF11F40EF4E4CE41C06ADFE9
:102F7000D0F39923D9F3CEF39F57550B87FF46D053
:102F80000024A0E640EA900180585695979528F4D1
:102F9000805C660F771F881F20F0261737074807C9
:102FA00030F4621B730B840B202931294A2BA69520
:102FB00017940794202531254A2758F7660F771F65
:102FC000881F20F026173707480730F4620B730B71
:102FD000840B200D311D411DA09581F7B901842F6F
:102FE0009158880F9695879508959B01AC0152CF13
:102FF0009F3F31F0915020F4879577956795B7956D
:10300000880F911D9695879597F908959150504096
:10301000660F771F881FD2F708959F938F937F9332
:103020006F93FF93EF939B01AC0134DFEF91FF911E
:1030300084DE2F913F914F915F912CCF97FB092E0A
:1030400007260AD077FD04D065D006D000201AF4F8
:10305000709561957F4F0895F6F7909581959F4FF4
:103060000895A1E21A2EAA1BBB1BFD010DC0AA1FC9
:10307000BB1FEE1FFF1FA217B307E407F50720F0E1
:10308000A21BB30BE40BF50B661F771F881F991F5C
:103090001A9469F760957095809590959B01AC01A5
:1030A000BD01CF0108952F923F924F925F926F9290
:1030B0007F928F929F92AF92BF92CF92DF92EF92C8
:1030C000FF920F931F93CF93DF93CDB7DEB7CA1B49
:1030D000DB0B0FB6F894DEBF0FBECDBF09942A8874
:1030E000398848885F846E847D848C849B84AA841C
:1030F000B984C884DF80EE80FD800C811B81AA81A9
:10310000B981CE0FD11D0FB6F894DEBF0FBECDBF73
:10311000ED010895AA1BBB1B51E107C0AA1FBB1FED
:10312000A617B70710F0A61BB70B881F991F5A9553
:10313000A9F780959095BC01CD010895283008F03D
:1031400027E03327DA01990F311D87FD9160009642
:103150006105710539F432602E5F3D9330E32A95A5
:10316000E1F708959F3F30F080387105610509F05F
:103170003C5F3C5F3D93913008F08068911DDF9388
:10318000CF931F930F93FF92EF92192F987F9695ED
:10319000E92F96959695E90FFF27E75DFE4F992752
:1031A0003327EE24FF24A701E70105900894079434
:1031B00028F4360FE71EF81E491F511D660F771FB2
:1031C000881F991F0694A1F70590079428F4E70E2D
:1031D000F81E491F561FC11D770F881F991F661FB4
:1031E0000694A1F70590079428F4F80E491F561F7E
:1031F000C71FD11D880F991F661F771F0694A1F75F
:103200000590079420F4490F561FC71FD81F990F28
:10321000661F771F881F0694A9F784911095177071
:1032200041F0D695C79557954795F794E7941A9529
:10323000C1F7EFECF0E06894159015913591659128
:10324000959105907FE27395E118F10A430B560BB7
:10325000C90BD009C0F7E10CF11E431F561FC91F4F
:10326000D01D7EF4703311F48A95E6CFE8940150B6
:1032700030F0080F0AF40027021708F4202F2395D6
:10328000022F7A3328F079E37D932A95E9F710C06D
:103290007D932A9589F606949795679537951795A6
:1032A0001794E118F10A430B560BC90BD00998F09B
:1032B00023957E9173957A3308F070E37C93201305
:1032C000B8F77E9170617D9330F0839571E37D93C3
:1032D00070E32A95E1F71124EF90FF900F911F9171
:1032E000CF91DF91992787FD90950895FC01059076
:1032F000615070400110D8F7809590958E0F9F1FF8
:103300000895FC016150704001900110D8F780953C
:1033100090958E0F9F1F08950F931F93CF93DF9368
:103320008C01EB018B8181FF1BC082FF0DC02E81C0
:103330003F818C819D812817390764F4E881F981E8
:103340000193F983E88306C0E885F985802F099504
:10335000892B31F48E819F8101969F838E8302C0D9
:103360000FEF1FEFC801DF91CF911F910F910895CB
:10337000A0E0B0E0EEEBF9E10C946318FE013596A5
:10338000619171918091E5019091E601AF010E94F8
:1033900004012096E2E00C947F180F931F93CF93C3
:1033A000DF938C01E091E501F091E601838181FFDB
:1033B00021C0C0E0D0E00DC0E091E501F091E60150
:1033C00020853185BF01F9010995892B11F0CFEFD7
:1033D000DFEFF80181918F01882371F7E091E5011A
:1033E000F091E601208531858AE0BF01F901099558
:1033F000892B11F0CFEFDFEFCE01DF91CF911F913D
:103400000F910895AEE0B0E0E8E0FAE10C946118A5
:103410000D891E8986E08C831A8309838FEF9FE7CD
:103420009E838D839E01275E3F4FCE0101966F895B
:10343000788DA9010E9404012F813885020F131F86
:10344000F80110822E96E4E00C947D18FA01AA2768
:10345000283051F1203181F1E8946F936E7F6E5FD7
:103460007F4F8F4F9F4FAF4FB1E03ED0B4E03CD085
:10347000670F781F891F9A1FA11D680F791F8A1F68
:10348000911DA11D6A0F711D811D911DA11D20D0CF
:1034900009F468943F912AE0269F11243019305D89
:1034A0003193DEF6CF010895462F4770405D41937A
:1034B000B3E00FD0C9F7F6CF462F4F70405D4A33C7
:1034C00018F0495D31FD4052419302D0A9F7EACF8F
:1034D000B4E0A6959795879577956795BA95C9F7BE
:1034E00000976105710508959B01AC010A2E0694B1
:1034F0005795479537952795BA95C9F7620F731F6A
:0C350000841F951FA01D0895F894FFCFB4
:10350C00486F6D650D004465746563740D006469E6
:10351C007374616E636520313A2025642C206469D4
:10352C007374616E636520323A2025642C206469C3
:10353C007374616E63653A2025640D0A00436F6EE7
:10354C0074726F6C0D00477269707065720D004D6E
:10355C006F7665426C6F636B0D0053656E73696EAD
:10356C00673A2068656176790D0053656E73696EF4
:10357C00673A206C696768740D00256C640D0A004D
:10358C0048656176790D004C696768740D00256497
:10359C002C2025640D0A0025640D0A0053657473F4
:1035AC006572766F2825642C25303364290A0D004A
:1035BC000000000200000000C7140000000033B33C
:1035CC000B4366661843000025430018D4450000E1
:0635DC0040C00000804029
:00000001FF
